{
  "contractName": "PaymentChannel",
  "abi": [
    {
      "constant": true,
      "inputs": [
        {
          "name": "",
          "type": "address"
        }
      ],
      "name": "balance",
      "outputs": [
        {
          "name": "",
          "type": "uint256"
        }
      ],
      "payable": false,
      "stateMutability": "view",
      "type": "function"
    },
    {
      "inputs": [],
      "payable": false,
      "stateMutability": "nonpayable",
      "type": "constructor"
    },
    {
      "anonymous": false,
      "inputs": [
        {
          "indexed": false,
          "name": "depositer",
          "type": "address"
        },
        {
          "indexed": false,
          "name": "value_added",
          "type": "uint256"
        },
        {
          "indexed": false,
          "name": "value_total",
          "type": "uint256"
        },
        {
          "indexed": false,
          "name": "time",
          "type": "uint256"
        }
      ],
      "name": "Layer2Setup",
      "type": "event"
    },
    {
      "constant": true,
      "inputs": [
        {
          "name": "owner",
          "type": "address"
        }
      ],
      "name": "balanceOf",
      "outputs": [
        {
          "name": "",
          "type": "uint256"
        }
      ],
      "payable": false,
      "stateMutability": "view",
      "type": "function"
    },
    {
      "constant": false,
      "inputs": [
        {
          "name": "timeout",
          "type": "uint256"
        }
      ],
      "name": "setup",
      "outputs": [],
      "payable": true,
      "stateMutability": "payable",
      "type": "function"
    }
  ],
  "bytecode": "0x608060405234801561001057600080fd5b506102dd806100206000396000f300608060405260043610610057576000357c0100000000000000000000000000000000000000000000000000000000900463ffffffff1680634313b9e51461005c57806370a082311461007c578063e3d670d7146100d3575b600080fd5b61007a6004803603810190808035906020019092919050505061012a565b005b34801561008857600080fd5b506100bd600480360381019080803573ffffffffffffffffffffffffffffffffffffffff169060200190929190505050610251565b6040518082815260200191505060405180910390f35b3480156100df57600080fd5b50610114600480360381019080803573ffffffffffffffffffffffffffffffffffffffff169060200190929190505050610299565b6040518082815260200191505060405180910390f35b6000806000806000341415151561014057600080fd5b3393506000808573ffffffffffffffffffffffffffffffffffffffff1673ffffffffffffffffffffffffffffffffffffffff1681526020019081526020016000205491503482019250826000808673ffffffffffffffffffffffffffffffffffffffff1673ffffffffffffffffffffffffffffffffffffffff168152602001908152602001600020819055504290507f1a0172751bc4f32a97eaf8686d5d38523b2f6f3d3a6874e4fc5f2a702eb4917884348584604051808573ffffffffffffffffffffffffffffffffffffffff1673ffffffffffffffffffffffffffffffffffffffff16815260200184815260200183815260200182815260200194505050505060405180910390a15050505050565b60008060008373ffffffffffffffffffffffffffffffffffffffff1673ffffffffffffffffffffffffffffffffffffffff168152602001908152602001600020549050919050565b600060205280600052604060002060009150905054815600a165627a7a723058205c41ba30495734d5b7d83b14e83019f7a612b36ca26db4b835e8c91d55c94aa00029",
  "source": "pragma solidity ^0.4.0;\n\ncontract PaymentChannel {\n\n  mapping (address => uint) public balance;\n\n  mapping (bytes32 => address) signatures;\n  \n  constructor() {\n\t  \n  }\n\n  function balanceOf(address owner) public constant returns(uint){\n    return balance[owner];\n  }\n\n\n  event Layer2Setup(address depositer, uint value_added, uint value_total, uint time);\n\t\n  function setup(uint timeout) payable {\n    require(msg.value != 0);\n    address depositer = msg.sender;\n    uint value;\n    uint current_value = balance[depositer];\n    value = current_value + msg.value;\n    /* if ( current_value != 0) { */\n    /*   value = current_value + msg.value; */\n    /* } */\n    /* else { */\n    /*   value = msg.value; */\n    /* } */\n    balance[depositer] = value;\n    uint lastDepositDate = now;\n    emit Layer2Setup(depositer, msg.value, value, lastDepositDate);\n  }\n\t\n  /* function CloseChannel(bytes32 h, uint8 v, bytes32 r, bytes32 s, uint value){ */\n\n  /*   address signer; */\n  /*   bytes32 proof; */\n\n  /*   // get signer from signature */\n  /*   signer = ecrecover(h, v, r, s); */\n\n  /*   // signature is invalid, throw */\n  /*   if (signer != channelSender && signer != channelRecipient) throw; */\n\n  /*   proof = sha3(this, value); */\n\n  /*   // signature is valid but doesn't match the data provided */\n  /*   if (proof != h) throw; */\n\n  /*   if (signatures[proof] == 0) */\n  /*     signatures[proof] = signer; */\n  /*   else if (signatures[proof] != signer){ */\n  /*     // channel completed, both signatures provided */\n  /*     if (!channelRecipient.send(value)) throw; */\n  /*     selfdestruct(channelSender); */\n  /*   } */\n\n  /* } */\n\n  /* function ChannelTimeout(){ */\n  /*   if (startDate + channelTimeout > now) */\n  /*     throw; */\n\n  /*   selfdestruct(channelSender); */\n  /* } */\n\n}\n",
  "sourcePath": "/home/whysos3rious/eth-layer2App-tracker/examples/paymentChannel/contracts/PaymentChannel.sol",
  "compiler": {
    "name": "solc",
    "version": "0.4.24+commit.e67f0147.Emscripten.clang"
  },
  "schemaVersion": "2.0.1",
  "updatedAt": "2018-11-14T09:52:52.547Z"
}