{
  "contractName": "PaymentChannel",
  "abi": [
    {
      "constant": true,
      "inputs": [
        {
          "name": "",
          "type": "bytes32"
        }
      ],
      "name": "depositByCustomHash",
      "outputs": [
        {
          "name": "depositer",
          "type": "address"
        },
        {
          "name": "nonce",
          "type": "uint256"
        },
        {
          "name": "value",
          "type": "uint256"
        }
      ],
      "payable": false,
      "stateMutability": "view",
      "type": "function"
    },
    {
      "constant": true,
      "inputs": [
        {
          "name": "",
          "type": "address"
        },
        {
          "name": "",
          "type": "uint256"
        }
      ],
      "name": "depositCustomHashesByAddress",
      "outputs": [
        {
          "name": "",
          "type": "bytes32"
        }
      ],
      "payable": false,
      "stateMutability": "view",
      "type": "function"
    },
    {
      "constant": true,
      "inputs": [
        {
          "name": "",
          "type": "address"
        }
      ],
      "name": "balance",
      "outputs": [
        {
          "name": "",
          "type": "uint256"
        }
      ],
      "payable": false,
      "stateMutability": "view",
      "type": "function"
    },
    {
      "inputs": [],
      "payable": false,
      "stateMutability": "nonpayable",
      "type": "constructor"
    },
    {
      "anonymous": false,
      "inputs": [
        {
          "indexed": false,
          "name": "depositer",
          "type": "address"
        },
        {
          "indexed": false,
          "name": "value_added",
          "type": "uint256"
        },
        {
          "indexed": false,
          "name": "value_total",
          "type": "uint256"
        },
        {
          "indexed": false,
          "name": "time",
          "type": "uint256"
        },
        {
          "indexed": false,
          "name": "depositCustomHash",
          "type": "bytes32"
        }
      ],
      "name": "Layer2Setup",
      "type": "event"
    },
    {
      "constant": true,
      "inputs": [
        {
          "name": "owner",
          "type": "address"
        }
      ],
      "name": "balanceOf",
      "outputs": [
        {
          "name": "",
          "type": "uint256"
        }
      ],
      "payable": false,
      "stateMutability": "view",
      "type": "function"
    },
    {
      "constant": false,
      "inputs": [
        {
          "name": "timeout",
          "type": "uint256"
        }
      ],
      "name": "setup",
      "outputs": [
        {
          "name": "",
          "type": "bytes32"
        }
      ],
      "payable": true,
      "stateMutability": "payable",
      "type": "function"
    }
  ],
  "bytecode": "0x608060405234801561001057600080fd5b5061064e806100206000396000f30060806040526004361061006d576000357c0100000000000000000000000000000000000000000000000000000000900463ffffffff1680634313b9e51461007257806350f58be9146100ae57806370a082311461012d578063db846c8314610184578063e3d670d7146101ed575b600080fd5b61009060048036038101908080359060200190929190505050610244565b60405180826000191660001916815260200191505060405180910390f35b3480156100ba57600080fd5b506100dd6004803603810190808035600019169060200190929190505050610548565b604051808473ffffffffffffffffffffffffffffffffffffffff1673ffffffffffffffffffffffffffffffffffffffff168152602001838152602001828152602001935050505060405180910390f35b34801561013957600080fd5b5061016e600480360381019080803573ffffffffffffffffffffffffffffffffffffffff169060200190929190505050610592565b6040518082815260200191505060405180910390f35b34801561019057600080fd5b506101cf600480360381019080803573ffffffffffffffffffffffffffffffffffffffff169060200190929190803590602001909291905050506105da565b60405180826000191660001916815260200191505060405180910390f35b3480156101f957600080fd5b5061022e600480360381019080803573ffffffffffffffffffffffffffffffffffffffff16906020019092919050505061060a565b6040518082815260200191505060405180910390f35b600080600080600080600080341415151561025e57600080fd5b3395506000808773ffffffffffffffffffffffffffffffffffffffff1673ffffffffffffffffffffffffffffffffffffffff1681526020019081526020016000205493503484019450846000808873ffffffffffffffffffffffffffffffffffffffff1673ffffffffffffffffffffffffffffffffffffffff16815260200190815260200160002081905550429250600260003373ffffffffffffffffffffffffffffffffffffffff1673ffffffffffffffffffffffffffffffffffffffff168152602001908152602001600020805490509150423383604051808481526020018373ffffffffffffffffffffffffffffffffffffffff1673ffffffffffffffffffffffffffffffffffffffff166c010000000000000000000000000281526014018281526020019350505050604051809103902090506060604051908101604052803373ffffffffffffffffffffffffffffffffffffffff1681526020018381526020013481525060016000836000191660001916815260200190815260200160002060008201518160000160006101000a81548173ffffffffffffffffffffffffffffffffffffffff021916908373ffffffffffffffffffffffffffffffffffffffff1602179055506020820151816001015560408201518160020155905050600260003373ffffffffffffffffffffffffffffffffffffffff1673ffffffffffffffffffffffffffffffffffffffff1681526020019081526020016000208190806001815401808255809150509060018203906000526020600020016000909192909190915090600019169055507f14ca7c4a2865f3baf4b313fa47c0cae7f037110308719653f61b07ca758377e98634878685604051808673ffffffffffffffffffffffffffffffffffffffff1673ffffffffffffffffffffffffffffffffffffffff16815260200185815260200184815260200183815260200182600019166000191681526020019550505050505060405180910390a1809650505050505050919050565b60016020528060005260406000206000915090508060000160009054906101000a900473ffffffffffffffffffffffffffffffffffffffff16908060010154908060020154905083565b60008060008373ffffffffffffffffffffffffffffffffffffffff1673ffffffffffffffffffffffffffffffffffffffff168152602001908152602001600020549050919050565b6002602052816000526040600020818154811015156105f557fe5b90600052602060002001600091509150505481565b600060205280600052604060002060009150905054815600a165627a7a723058208bf03418342fc3c36c6ce0717b31be3cbdeaf322a1426b5a79d90e0d956afdb70029",
  "source": "pragma solidity ^0.4.0;\n\ncontract PaymentChannel {\n\n  mapping (address => uint) public balance;\n\n  struct Deposit {\n    address depositer;\n    uint nonce;\n    uint value;\n  }\n  mapping (bytes32 => Deposit) public depositByCustomHash;\n  mapping (address => bytes32[]) public depositCustomHashesByAddress;\n  \n  constructor() {\n\t  \n  }\n\n  function balanceOf(address owner) public constant returns(uint){\n    return balance[owner];\n  }\n\n  event Layer2Setup(address depositer, uint value_added, uint value_total, uint time, bytes32 depositCustomHash);\n\t\n  function setup(uint timeout) payable returns (bytes32){\n    require(msg.value != 0);\n    address depositer = msg.sender;\n    uint value;\n    uint current_value = balance[depositer];\n    value = current_value + msg.value;\n    balance[depositer] = value;\n    uint lastDepositDate = now;\n    uint nonce = depositCustomHashesByAddress[msg.sender].length;\n    bytes32 depositCustomHash = keccak256(now, msg.sender, nonce);\n    depositByCustomHash[depositCustomHash] = Deposit(msg.sender, nonce, msg.value);\n    depositCustomHashesByAddress[msg.sender].push(depositCustomHash);\n    emit Layer2Setup(depositer, msg.value, value, lastDepositDate, depositCustomHash);\n    return depositCustomHash; \n  }\n\t\n  /* function CloseChannel(bytes32 h, uint8 v, bytes32 r, bytes32 s, uint value){ */\n\n  /*   address signer; */\n  /*   bytes32 proof; */\n\n  /*   // get signer from signature */\n  /*   signer = ecrecover(h, v, r, s); */\n\n  /*   // signature is invalid, throw */\n  /*   if (signer != channelSender && signer != channelRecipient) throw; */\n\n  /*   proof = sha3(this, value); */\n\n  /*   // signature is valid but doesn't match the data provided */\n  /*   if (proof != h) throw; */\n\n  /*   if (signatures[proof] == 0) */\n  /*     signatures[proof] = signer; */\n  /*   else if (signatures[proof] != signer){ */\n  /*     // channel completed, both signatures provided */\n  /*     if (!channelRecipient.send(value)) throw; */\n  /*     selfdestruct(channelSender); */\n  /*   } */\n\n  /* } */\n\n  /* function ChannelTimeout(){ */\n  /*   if (startDate + channelTimeout > now) */\n  /*     throw; */\n\n  /*   selfdestruct(channelSender); */\n  /* } */\n\n}\n",
  "sourcePath": "/home/whysos3rious/eth-layer2App-tracker/examples/paymentChannel/contracts/PaymentChannel.sol",
  "compiler": {
    "name": "solc",
    "version": "0.4.24+commit.e67f0147.Emscripten.clang"
  },
  "schemaVersion": "2.0.1",
  "updatedAt": "2018-11-27T17:19:02.812Z"
}