{
  "contractName": "PaymentChannel",
  "abi": [
    {
      "constant": true,
      "inputs": [],
      "name": "channelRecipient",
      "outputs": [
        {
          "name": "",
          "type": "address"
        }
      ],
      "payable": false,
      "stateMutability": "view",
      "type": "function"
    },
    {
      "constant": true,
      "inputs": [],
      "name": "channelSender",
      "outputs": [
        {
          "name": "",
          "type": "address"
        }
      ],
      "payable": false,
      "stateMutability": "view",
      "type": "function"
    },
    {
      "constant": true,
      "inputs": [],
      "name": "startDate",
      "outputs": [
        {
          "name": "",
          "type": "uint256"
        }
      ],
      "payable": false,
      "stateMutability": "view",
      "type": "function"
    },
    {
      "constant": true,
      "inputs": [],
      "name": "channelTimeout",
      "outputs": [
        {
          "name": "",
          "type": "uint256"
        }
      ],
      "payable": false,
      "stateMutability": "view",
      "type": "function"
    },
    {
      "constant": false,
      "inputs": [
        {
          "name": "to",
          "type": "address"
        },
        {
          "name": "timeout",
          "type": "uint256"
        }
      ],
      "name": "Channel",
      "outputs": [],
      "payable": true,
      "stateMutability": "payable",
      "type": "function"
    },
    {
      "constant": false,
      "inputs": [
        {
          "name": "h",
          "type": "bytes32"
        },
        {
          "name": "v",
          "type": "uint8"
        },
        {
          "name": "r",
          "type": "bytes32"
        },
        {
          "name": "s",
          "type": "bytes32"
        },
        {
          "name": "value",
          "type": "uint256"
        }
      ],
      "name": "CloseChannel",
      "outputs": [],
      "payable": false,
      "stateMutability": "nonpayable",
      "type": "function"
    },
    {
      "constant": false,
      "inputs": [],
      "name": "ChannelTimeout",
      "outputs": [],
      "payable": false,
      "stateMutability": "nonpayable",
      "type": "function"
    }
  ],
  "bytecode": "0x608060405234801561001057600080fd5b50610725806100206000396000f300608060405260043610610083576000357c0100000000000000000000000000000000000000000000000000000000900463ffffffff16806304758e7914610088578063075aa0c4146100df5780630b97bc86146101365780632ef2d55e14610161578063396582451461018c578063aaea53f3146101a3578063adacb0fa146101e3575b600080fd5b34801561009457600080fd5b5061009d610247565b604051808273ffffffffffffffffffffffffffffffffffffffff1673ffffffffffffffffffffffffffffffffffffffff16815260200191505060405180910390f35b3480156100eb57600080fd5b506100f461026d565b604051808273ffffffffffffffffffffffffffffffffffffffff1673ffffffffffffffffffffffffffffffffffffffff16815260200191505060405180910390f35b34801561014257600080fd5b5061014b610292565b6040518082815260200191505060405180910390f35b34801561016d57600080fd5b50610176610298565b6040518082815260200191505060405180910390f35b34801561019857600080fd5b506101a161029e565b005b6101e1600480360381019080803573ffffffffffffffffffffffffffffffffffffffff169060200190929190803590602001909291905050506102eb565b005b3480156101ef57600080fd5b506102456004803603810190808035600019169060200190929190803560ff169060200190929190803560001916906020019092919080356000191690602001909291908035906020019092919050505061037e565b005b600160009054906101000a900473ffffffffffffffffffffffffffffffffffffffff1681565b6000809054906101000a900473ffffffffffffffffffffffffffffffffffffffff1681565b60025481565b60035481565b426003546002540111156102b157600080fd5b6000809054906101000a900473ffffffffffffffffffffffffffffffffffffffff1673ffffffffffffffffffffffffffffffffffffffff16ff5b81600160006101000a81548173ffffffffffffffffffffffffffffffffffffffff021916908373ffffffffffffffffffffffffffffffffffffffff160217905550336000806101000a81548173ffffffffffffffffffffffffffffffffffffffff021916908373ffffffffffffffffffffffffffffffffffffffff16021790555042600281905550806003819055505050565b600080600187878787604051600081526020016040526040518085600019166000191681526020018460ff1660ff1681526020018360001916600019168152602001826000191660001916815260200194505050505060206040516020810390808403906000865af11580156103f8573d6000803e3d6000fd5b5050506020604051035191506000809054906101000a900473ffffffffffffffffffffffffffffffffffffffff1673ffffffffffffffffffffffffffffffffffffffff168273ffffffffffffffffffffffffffffffffffffffff16141580156104af5750600160009054906101000a900473ffffffffffffffffffffffffffffffffffffffff1673ffffffffffffffffffffffffffffffffffffffff168273ffffffffffffffffffffffffffffffffffffffff1614155b156104b957600080fd5b3083604051808373ffffffffffffffffffffffffffffffffffffffff1673ffffffffffffffffffffffffffffffffffffffff166c0100000000000000000000000002815260140182815260200192505050604051809103902090508660001916816000191614151561052a57600080fd5b600060046000836000191660001916815260200190815260200160002060009054906101000a900473ffffffffffffffffffffffffffffffffffffffff1673ffffffffffffffffffffffffffffffffffffffff1614156105e3578160046000836000191660001916815260200190815260200160002060006101000a81548173ffffffffffffffffffffffffffffffffffffffff021916908373ffffffffffffffffffffffffffffffffffffffff1602179055506106f0565b8173ffffffffffffffffffffffffffffffffffffffff1660046000836000191660001916815260200190815260200160002060009054906101000a900473ffffffffffffffffffffffffffffffffffffffff1673ffffffffffffffffffffffffffffffffffffffff161415156106ef57600160009054906101000a900473ffffffffffffffffffffffffffffffffffffffff1673ffffffffffffffffffffffffffffffffffffffff166108fc849081150290604051600060405180830381858888f1935050505015156106b557600080fd5b6000809054906101000a900473ffffffffffffffffffffffffffffffffffffffff1673ffffffffffffffffffffffffffffffffffffffff16ff5b5b505050505050505600a165627a7a72305820ee33d4eeb802fc16f49363a751fe1b6cb14078e3ac863014a97c08ec5f4cee4a0029",
  "source": "pragma solidity ^0.4.0;\n\ncontract PaymentChannel {\n\n\taddress public channelSender;\n\taddress public channelRecipient;\n\tuint public startDate;\n\tuint public channelTimeout;\n\tmapping (bytes32 => address) signatures;\n\n\tfunction Channel(address to, uint timeout) payable {\n\t\tchannelRecipient = to;\n\t\tchannelSender = msg.sender;\n\t\tstartDate = now;\n\t\tchannelTimeout = timeout;\n\t}\n\n\tfunction CloseChannel(bytes32 h, uint8 v, bytes32 r, bytes32 s, uint value){\n\n\t\taddress signer;\n\t\tbytes32 proof;\n\n\t\t// get signer from signature\n\t\tsigner = ecrecover(h, v, r, s);\n\n\t\t// signature is invalid, throw\n\t\tif (signer != channelSender && signer != channelRecipient) throw;\n\n\t\tproof = sha3(this, value);\n\n\t\t// signature is valid but doesn't match the data provided\n\t\tif (proof != h) throw;\n\n\t\tif (signatures[proof] == 0)\n\t\t\tsignatures[proof] = signer;\n\t\telse if (signatures[proof] != signer){\n\t\t\t// channel completed, both signatures provided\n\t\t\tif (!channelRecipient.send(value)) throw;\n\t\t\tselfdestruct(channelSender);\n\t\t}\n\n\t}\n\n\tfunction ChannelTimeout(){\n\t\tif (startDate + channelTimeout > now)\n\t\t\tthrow;\n\n\t\tselfdestruct(channelSender);\n\t}\n\n}\n",
  "sourcePath": "/home/whysos3rious/eth-layer2App-tracker/examples/paymentChannel/contracts/PaymentChannel.sol",
  "compiler": {
    "name": "solc",
    "version": "0.4.24+commit.e67f0147.Emscripten.clang"
  },
  "schemaVersion": "2.0.1",
  "updatedAt": "2018-10-25T07:34:16.991Z"
}